:100000000C94B1000C94CE000C94CE000C94CE0055
:100010000C94CE000C94CE000C94CE000C94CE0028
:100020000C94CE000C94CE000C94CE000C94CE0018
:100030000C94CE000C94CE000C94CE000C94CE0008
:100040000C94CE000C94CE000C94CE000C94CE00F8
:100050000C94CE000C94CE000C94CE000C94CE00E8
:100060000C94CE000C94CE0000407A10F35A00A0FD
:10007000724E18090010A5D4E80000E87648170071
:1000800000E40B54020000CA9A3B000000E1F505B1
:10009000000080969800000040420F000000A086FB
:1000A00001000000102700000000E803000000002D
:1000B0006400000000000A000000000001000000D1
:1000C00000002C76D888DC674F0823DFC1DFAE59EB
:1000D000E1B1B796E5E3E453C63AE651997696E87E
:1000E000E6C28426EB898C9B62ED407C6FFCEFBC02
:1000F0009C9F40F2BAA56FA5F490055A2AF75C932D
:100100006B6CF9676DC11BFCE0E40D47FEF520E662
:10011000B500D0ED902E0300943577050080841E45
:10012000080000204E0A000000C80C333333330FA0
:10013000986E12831141EF8D2114893BE65516CF3D
:10014000FEE6DB18D1844B381BF77C1D901DA4BB49
:10015000E424203284725E228100C9F124ECA1E5FE
:100160003D2711241FBECFEFD8E0DEBFCDBF13E087
:10017000A0E0B1E0E4ECF3E202C005900D92A439F6
:10018000B107D9F723E0A4E9B3E001C01D92AA3971
:10019000B207E1F70E94D9070C94E0110C9400001B
:1001A00084B18C6284B984B18F7E84B980E58CBDC2
:1001B00081E08DBD08958EBD0DB407FEFDCF08957D
:1001C0009BB190689BB995B19B7F95B90E94DB006C
:1001D00085B1846085B908959BB19F779BB995B12E
:1001E0009B7F95B90E94DB0085B1846085B9089535
:1001F000CF93C82F8BB180688BB985B18B7F85B9C0
:10020000892F0E94DB008C2F0E94DB0085B1846067
:1002100085B9CF910895CF92DF92EF92FF920F931D
:100220001F93CF93DF936C018B017A01E9018AE27E
:100230000E94EC00C6010E94F800C7010E94F8006D
:100240008BE20E94EC00C8010E94F800CE010E94DF
:10025000F8008CE20E94EC00DF91CF911F910F918A
:10026000FF90EF90DF90CF90089584B1846084B9BF
:100270008AB180688AB984B1816084B985B18160AE
:1002800085B98FE39CE90197F1F700C0000085B1C3
:100290008E7F85B99FEF29EF80E09150204080400C
:1002A000E1F700C0000085B1816085B99FEF22E5CC
:1002B00087E0915020408040E1F700C0000081E0DD
:1002C0000E94EC009FEF21EE84E09150204080409E
:1002D000E1F700C0000081E10E94EC009FEF21EEF9
:1002E00084E0915020408040E1F700C0000081EBA5
:1002F0000E94EC0080E00E94E00088E10E94E000A3
:1003000086EB0E94EC0088E00E94E00082E80E94F8
:10031000E00087E20E94E00080EC0E94EC0083E2B3
:100320000E94E00081EC0E94EC0080E10E94E0006D
:1003300085EC0E94EC008EE30E94E00088E20E94BF
:10034000E00087EC0E94EC0086E80E94E00086E373
:100350000E94EC0088E20E94E0008AE30E94EC0028
:1003600085E50E94E00080E20E94EC0083E10E94AB
:10037000EC008FE39CE90197F1F700C0000089E2EF
:100380000E94EC009FEF21EE84E0915020408040DD
:10039000E1F700C000000895CF93DF93803421E09F
:1003A000920768F477235CF0603F710544F4EA013A
:1003B0009B01AC010E940B01CE010E94F800DF916D
:1003C000CF910895CF92DF92EF92FF920F931F93F8
:1003D0008034E1E09E078CF5603F710574F569019A
:1003E0007A019B012C0D3D1DAC014E0D5F1D21506E
:1003F0003109415051090E940B018BB180688BB9C2
:1004000085B18B7F85B99701D6010E94CC0B6B011A
:100410007C010BC0812F0E94DB00802F0E94DB003B
:1004200081E0C81AD108E108F1081C141D041E045B
:100430001F0484F385B1846085B91F910F91FF90EB
:10044000EF90DF90CF9008956F927F928F929F925E
:10045000AF92BF92CF92DF92EF92FF920F931F93D2
:10046000CF93DF937C0190EE940F9B3508F04FC043
:10047000602E59016B01842F90E080974C01880C0D
:10048000991C880C991C880D991D9C01215E3E4F7A
:100490004901712C39C0F401E70DF11DD081C0E094
:1004A00030C02C2F30E08D2F90E00C2E02C095959F
:1004B00087950A94E2F780FF23C081E068120AC0A2
:1004C000B9016C0D7D1DA501C701870D911D0E940D
:1004D000CC0116C0462D50E0249FB001259F700D21
:1004E000349F700D1124749EC001759E900D1124CF
:1004F0006C0D7D1D85019A018E0D9F1D0E94E201EC
:10050000CF5FC73070F2739424E0271520F6DF9197
:10051000CF911F910F91FF90EF90DF90CF90BF9000
:10052000AF909F908F907F906F9008950F931F933F
:100530008C0120EF30E040E451E060E070E080E0CA
:1005400090E00E94E2011F910F910895909397030C
:10055000809396037093950360939403089590930A
:100560000601809305010895811101C081E0809307
:10057000040108950F93CF93DF93EC0156C04A30E6
:10058000C1F410929703109296038091040190E0B9
:10059000880F991F880F991F880F991F2091940326
:1005A00030919503820F931F90939503809394034A
:1005B0003BC0209105013091060160919403709138
:1005C00095030091040180919603909197030E94F6
:1005D00024028091040190E09C01220F331F280F18
:1005E000391F220F331F4091960350919703240F18
:1005F000351F30939703209396032B333140A4F09B
:100600001092970310929603880F991F880F991FD5
:10061000880F991F2091940330919503820F931FA7
:100620009093950380939403219648814111A7CF1D
:10063000DF91CF910F910895DF92EF92FF920F9388
:100640001F93CF93DF93CDB7DEB7C054D1090FB658
:10065000F894DEBF0FBECDBF6396DFAC63979E01FB
:100660002B5A3F4F65964EAD5FAD659760E470E0E5
:10067000CE0101967C010E94710CF70101900020CF
:10068000E9F73197EE19FF092D2D30E02E9FA001DB
:100690002F9F500D3E9F500D1124CA01880F991FA6
:1006A000480F591F440F551F220F331F220F331FAE
:1006B000220F331F62960EAD1FAD62972E966EAD60
:1006C0007FAD2E972C968EAD9FAD2C970E94E201A8
:1006D0002E966EAD7FAD2E972C968EAD9FAD2C973E
:1006E0000E94A60260968EAD9FAD60970E94AF02F9
:1006F0008D2D0E94B402C7010E94BA02C05CDF4F78
:100700000FB6F894DEBF0FBECDBFDF91CF911F9122
:100710000F91FF90EF90DF900895CF93DF93D82F44
:10072000C62F80ED0E9497058D2F0E94A8058C2F63
:100730000E94A8050E94A005DF91CF9108950E9414
:10074000650560E08BE60E948D0367E089E10E9409
:100750008D0360E08AE10E948D0360E08BE10E94DE
:100760008D0360E08CE10E948D0308950F931F9329
:10077000CF93DF938C0180ED0E9497058BE30E945D
:10078000A8050E94A00581ED0E9497050E94B90569
:10079000C82FD0E0DC2FCC270E94B905C82BF80168
:1007A000D183C0830E94B905C82FD0E0DC2FCC27AD
:1007B0000E94B905C82BF801D383C2830E94B905F2
:1007C000C82FD0E0DC2FCC270E94B905C82BF80138
:1007D000D583C4830E94B905C82FD0E0DC2FCC2775
:1007E0000E94B905BE01682B072E000C880B990BDF
:1007F0000E944F0A20E030E04AEA53E40E94DB09FD
:1008000028EB3EE142E152E40E946A09F801648764
:100810007587868797870E94B905C82FD0E0DC2F9F
:10082000CC270E94B905C82BF801D783C6830E9444
:10083000B905C82FD0E0DC2FCC270E94B905C82B02
:10084000F801D187C0870E94B905C82FD0E0DC2FFE
:10085000CC270E94C305C82BF801D387C2870E940A
:10086000A005DF91CF911F910F9108954F925F9254
:100870006F927F928F929F92AF92BF92CF92DF92B0
:10088000EF92FF92CF93DF93CDB7DEB764970FB6A9
:10089000F894DEBF0FBECDBFCE0101960E94B60315
:1008A00069817A81072E000C880B990B0E944F0AF0
:1008B00020E030E040E858E30E94040B6B017C012B
:1008C0006B817C81072E000C880B990B0E944F0ACC
:1008D00020E030E040E858E30E94040B4B015C014B
:1008E0006D817E81072E000C880B990B0E944F0AA8
:1008F00020E030E040E858E30E94040B2B013C016B
:10090000A7019601C701B6010E94040B698B7A8B7F
:100910008B8B9C8BA5019401C501B4010E94040B33
:100920009B01AC0169897A898B899C890E946A093B
:100930004B015C01A3019201C301B2010E94040BAF
:100940009B01AC01C501B4010E946A090E94770BAA
:100950002AE939E949ED5FE30E94FF0A1816B4F06D
:1009600023E333E343E35FE3C701B6010E94FF0AD9
:10097000181674F023E333E343E35FEBC701B601DA
:100980000E94D609882334F483E005C081E003C0C7
:1009900082E001C080E064960FB6F894DEBF0FBE1F
:1009A000CDBFDF91CF91FF90EF90DF90CF90BF90C0
:1009B000AF909F908F907F906F905F904F90089531
:1009C0004F925F926F927F928F929F92AF92BF925F
:1009D000CF92DF92EF92FF92CF93DF93CDB7DEB746
:1009E00060970FB6F894DEBF0FBECDBFCE01019663
:1009F0000E94B60369817A81072E000C880B990B3F
:100A00000E944F0A20E030E040E858E30E94040BC7
:100A10006B017C016B817C81072E000C880B990B8C
:100A20000E944F0A20E030E040E858E30E94040BA7
:100A30004B015C016D817E81072E000C880B990BA8
:100A40000E944F0A20E030E040E858E30E94040B87
:100A50002B013C01A7019601C701B6010E94040BBE
:100A60006B017C01A5019401C501B4010E94040B36
:100A70009B01AC01C701B6010E946A096B017C01B0
:100A8000A3019201C301B2010E94040B4B015C015E
:100A9000A5019401C701B6010E946A090E94770B63
:100AA00060960FB6F894DEBF0FBECDBFDF91CF9139
:100AB000FF90EF90DF90CF90BF90AF909F908F907E
:100AC0007F906F905F904F9008951092B9008CE0E6
:100AD0008093B80084E08093BC00089594EA9093DA
:100AE000BC009091BC009923E4F79091B900987FE5
:100AF000983029F09091B900987F903191F48093CB
:100B0000BB0084E88093BC008091BC008823E4F79C
:100B10008091B900887F883131F0803431F480E0F1
:100B2000089581E0089580E0089581E00895CF93CD
:100B3000C82F8C2F0E946E058111FBCFCF91089595
:100B400084E98093BC008091BC0084FDFCCF0895B3
:100B50008093BB0084E88093BC008091BC00882314
:100B6000E4F79091B900987F81E0983209F480E031
:100B7000089584EC8093BC008091BC008823E4F746
:100B80008091BB00089584E88093BC008091BC00F4
:100B90008823E4F78091BB000895282F392F243152
:100BA000310508F063C028303105F0F4613071057B
:100BB00069F44AB121E030E0B90102C0660F771F45
:100BC0008A95E2F7CB01842B8AB908954AB121E0D6
:100BD00030E0B90102C0660F771F8A95E2F7CB01BA
:100BE000809584238AB9089528503109263031052B
:100BF000F8F488506130710569F444B121E030E0C7
:100C0000B90102C0660F771F8A95E2F7CB01842BEA
:100C100084B9089544B121E030E0B90102C0660F03
:100C2000771F8A95E2F7CB018095842384B90895D4
:100C30008E506130710569F447B121E030E0B901AF
:100C400002C0660F771F8A95E2F7CB01842B87B924
:100C5000089547B121E030E0B90102C0660F771F67
:100C60008A95E2F7CB018095842387B90895833173
:100C7000910578F58830910564F429B130E002C01F
:100C8000359527958A95E2F781E020FD23C080E025
:100C900008959C01285031092630310568F48850A8
:100CA00023B130E002C0359527958A95E2F781E0BF
:100CB00020FD10C080E008958E5026B130E002C0C3
:100CC000359527958A95E2F781E020FD03C080E005
:100CD000089580E008951092C00088E18093C100DB
:100CE00086E08093C20087E690E09093C5008093F1
:100CF000C40008959091C00095FFFCCF8093C6007A
:100D00000895CF93DF93EC0103C00E947A062196E9
:100D100088818111FACFDF91CF910895ECE7F0E05F
:100D2000808180648083EAE7F0E08081876080834F
:100D30008081806880830895ECE7F0E09081907F67
:100D40008770892B8083EAE7F0E08081806480836C
:100D500080917A0086FDFCCF809178009091790097
:100D6000089581E00E949C060895BF92CF92DF9281
:100D7000EF92FF920F931F93CF93DF93CDB7DEB720
:100D80006E970FB6F894DEBF0FBECDBF8FEF9FEF0B
:100D90000E9496022FEF87E893E121508040904017
:100DA000E1F700C0000080E090E00E9496022FEF83
:100DB00083EC99E0215080409040E1F700C00000B2
:100DC0000F2EF8E3EF2EFF24FA94F02D28C000E058
:100DD00010E028E230E040E451E064E670E080E0BA
:100DE00090E00E94E2016CE670E0C7010E94A6025A
:100DF00083E00E94B40280E098EF0E94AF0286EE8A
:100E000092E00E94BA022FEF80EE90E021508040E5
:100E10009040E1F700C0000028E0E20EF11C80E500
:100E2000E816F104A4F29FEF25EA8EE091502040ED
:100E30008040E1F700C0000082E1EDE0F1E0DE017A
:100E4000119601900D928A95E1F78AE0E6EEF2E0C4
:100E5000DE01539601900D928A95E1F7B12C51C0B5
:100E600000E010E028E230E040E451E064E670E0A9
:100E700080E090E00E94E20110E00F2EFFE4EF2EF0
:100E8000F12CF02D35C0EB2DE11B6AF0E9308CF42C
:100E9000EE0FFF0B81E090E08C0F9D1FE80FF91F14
:100EA000C080D18009C00F2EC12CF8EFDF2EF02DAD
:100EB00003C0CC24CA94DC2CE3E1F0E0EC0FFD1F6E
:100EC000E10FF11D80818D8F1E8E6CE670E0C701F1
:100ED0000E94A60283E00E94B402C6010E94AF02F3
:100EE000CE014D960E94BA0292E1E90EF11C1F5FFD
:100EF000193048F28FE99FE00197F1F700C0000038
:100F0000B3948B2D90E042970CF4AACF9FEF25EA83
:100F10008EE0915020408040E1F700C0000068EC76
:100F200070E083E290E00E94A60282E00E94B40298
:100F30008FEF9FEF0E94AF0280EF92E00E94BA0213
:100F40006E960FB6F894DEBF0FBECDBFDF91CF9186
:100F50001F910F91FF90EF90DF90CF90BF90089579
:100F60000E946B060E9465050E949F030E94D000AC
:100F70000E9435010E948E0660E070E080910B01B6
:100F800090910C010E94CD0560E070E08091090114
:100F900090910A010E94CD0560E070E08091070108
:100FA000909108010E94CD050E94B1060E94660C36
:100FB0000895CF93DF93CDB7DEB72A970FB6F89495
:100FC000DEBF0FBECDBF0E94B00781E093E00E945C
:100FD00081068CE093E00E9481068FE093E00E94FE
:100FE00081068CE093E00E94810689E193E00E94F3
:100FF00081068CE093E00E94810683E293E00E94E8
:1010000081068CE093E00E9481060E94B5068091E3
:101010000B0190910C010E9437068823C1F32FEF3A
:1010200080E792E0215080409040E1F700C000004E
:10103000C0909803D09099038FEF9FEF0E94960283
:1010400064E170E08AE090E00E94A60283E00E94E2
:10105000B40280EE97E00E94AF028CE393E00E941E
:10106000BA026EE670E08AE090E00E94A60282E09A
:101070000E94B40280E090E00E94AF028CE393E013
:101080000E94BA026CED70E08CED90E00E94A60226
:1010900081E00E94B40280EE9FEF0E94AF0287E3DE
:1010A00093E00E94BA0210E080910701909108013C
:1010B0000E9437068130C9F480E493E09F938F93B8
:1010C00083E08F931F921F9287E08F9380EE8F9320
:1010D0001F9284E18F931F928AE08F930E941C03DA
:1010E0000FB6F894DEBF0FBECDBF8091090190917D
:1010F0000A010E9437068130C9F488E493E09F9387
:101100008F9383E08F931F921F9287E08F938FEFCF
:101110008F931F9284E18F931F928AE08F930E9496
:101120001C030FB6F894DEBF0FBECDBF80910B013C
:1011300090910C010E9437068130C9F480E593E05C
:101140009F938F9383E08F931F921F928FEF8F93C4
:1011500080EE8F931F9284E18F931F928AE08F938A
:101160000E941C030FB6F894DEBF0FBECDBF0E94D5
:101170003604F82E181709F481C091E0891751F050
:10118000891708F452C022E08217E9F083E0F816CC
:1011900099F163C086E593E09F938F9382E08F93EC
:1011A0008FEF8F938F931F921F921F9284E68F93DE
:1011B0001F928AE08F930E941C030FB6F894DEBF43
:1011C0000FBECDBF4AC084E693E09F938F9382E029
:1011D0008F938FEF8F938F931F921F921F9284E6AE
:1011E0008F931F928AE08F930E941C030FB6F8948E
:1011F000DEBF0FBECDBF31C081E793E09F938F93D9
:1012000082E08F938FEF8F938F931F921F921F9285
:1012100084E68F931F928AE08F930E941C030FB67F
:10122000F894DEBF0FBECDBF18C080E893E09F9357
:101230008F9382E08F938FEF8F938F931F921F92E4
:101240001F9284E68F931F928AE08F930E941C0363
:101250000FB6F894DEBF0FBECDBF0E94E0048E0132
:101260000F5F1F4F23E045E00E94F50BC8010E946D
:1012700081068CE093E00E9481061F2D80E00E9491
:101280009C069093990380939803C816D90609F495
:101290000BCF9F938F938DE893E09F938F9381E083
:1012A0008F931F921F928FEF8F9380EE8F931F92D9
:1012B00087ED8F931F9288EC8F930E941C03C09040
:1012C0009803D09099030FB6F894DEBF0FBECDBF40
:1012D000EBCE5058BB27AA270E9481090C94C50A5F
:1012E0000E94B70A38F00E94BE0A20F039F49F3FEE
:1012F00019F426F40C94B40A0EF4E095E7FB0C9470
:10130000AE0AE92F0E94D60A58F3BA17620773078C
:101310008407950720F079F4A6F50C94F80A0EF4EA
:10132000E0950B2EBA2FA02D0B01B90190010C01F5
:10133000CA01A0011124FF27591B99F0593F50F40D
:10134000503E68F11A16F040A22F232F342F442765
:10135000585FF3CF469537952795A795F04053955D
:10136000C9F77EF41F16BA0B620B730B840BBAF02D
:101370009150A1F0FF0FBB1F661F771F881FC2F798
:101380000EC0BA0F621F731F841F48F487957795AC
:101390006795B795F7959E3F08F0B0CF9395880F66
:1013A00008F09927EE0F9795879508950E948A0A6D
:1013B00008F481E008950E94EF090C94C50A0E9488
:1013C000BE0A58F00E94B70A40F029F45F3F29F0A6
:1013D0000C94AE0A51110C94F90A0C94B40A0E94B0
:1013E000D60A68F39923B1F3552391F3951B550B56
:1013F000BB27AA2762177307840738F09F5F5F4FE8
:10140000220F331F441FAA1FA9F335D00E2E3AF026
:10141000E0E832D091505040E695001CCAF72BD03E
:10142000FE2F29D0660F771F881FBB1F261737078F
:101430004807AB07B0E809F0BB0B802DBF01FF27C1
:1014400093585F4F3AF09E3F510578F00C94AE0AE6
:101450000C94F90A5F3FE4F3983ED4F386957795B0
:101460006795B795F7959F5FC9F7880F911D96957A
:10147000879597F90895E1E0660F771F881FBB1FD6
:10148000621773078407BA0720F0621B730B840B83
:10149000BA0BEE1F88F7E0950895E89409C097FB12
:1014A0003EF490958095709561957F4F8F4F9F4F3B
:1014B0009923A9F0F92F96E9BB279395F69587957F
:1014C00077956795B795F111F8CFFAF4BB0F11F442
:1014D00060FF1BC06F5F7F4F8F4F9F4F16C08823E9
:1014E00011F096E911C0772321F09EE8872F762F1F
:1014F00005C0662371F096E8862F70E060E02AF060
:101500009A95660F771F881FDAF7880F969587954B
:1015100097F90895990F0008550FAA0BE0E8FEEF20
:1015200016161706E807F907C0F012161306E407A7
:10153000F50798F0621B730B840B950B39F40A26A0
:1015400061F0232B242B252B21F408950A2609F47E
:10155000A140A6958FEF811D811D089597F99F6782
:1015600080E870E060E008959FEF80EC089500242B
:101570000A941616170618060906089500240A94F8
:1015800012161306140605060895092E0394000C7E
:1015900011F4882352F0BB0F40F4BF2B11F460FF0D
:1015A00004C06F5F7F4F8F4F9F4F089557FD905836
:1015B000440F551F59F05F3F71F04795880F97FB17
:1015C000991F61F09F3F79F08795089512161306D1
:1015D0001406551FF2CF4695F1DF08C01616170600
:1015E0001806991FF1CF8695710561050894089535
:1015F000E894BB2766277727CB0197F908950E94C7
:101600008A0A08F48FEF08950E94170B0C94C50AFC
:101610000E94B70A38F00E94BE0A20F0952311F00C
:101620000C94AE0A0C94B40A11240C94F90A0E948A
:10163000D60A70F3959FC1F3950F50E0551F629F36
:10164000F001729FBB27F00DB11D639FAA27F00D1B
:10165000B11DAA1F649F6627B00DA11D661F829F42
:101660002227B00DA11D621F739FB00DA11D621F27
:10167000839FA00D611D221F749F3327A00D611D44
:10168000231F849F600D211D822F762F6A2F112426
:101690009F5750409AF0F1F088234AF0EE0FFF1F59
:1016A000BB1F661F771F881F91505040A9F79E3FB0
:1016B000510580F00C94AE0A0C94F90A5F3FE4F3F4
:1016C000983ED4F3869577956795B795F795E79506
:1016D0009F5FC1F7FE2B880F911D9695879597F90F
:1016E000089519F416F40C94B40A0C94B70B0E94E4
:1016F000DE0AB8F39923C9F3B6F39F57550B87FF5A
:101700000E94C50B0024A0E640EA9001805856953F
:10171000979528F4805C660F771F881F20F02617A6
:101720003707480730F4621B730B840B20293129DB
:101730004A2BA69517940794202531254A2758F758
:10174000660F771F881F20F026173707480730F4E9
:10175000620B730B840B200D311D411DA09581F789
:10176000B901842F9158880F9695879508959F3FCA
:1017700031F0915020F4879577956795B795880F4C
:10178000911D9695879597F9089591505040660F51
:10179000771F881FD2F708950E94D40B332312F4C9
:1017A0008A1B9B0B0C94E50BA29FB001B39FC00159
:1017B000A39F700D811D1124911DB29F700D811D7D
:1017C0001124911D08950E94D40BB7FF0895821B28
:1017D000930B08950E94D40BA59F900DB49F900D7C
:1017E000A49F800D911D11240895EF920F931F93D4
:1017F000CF93DF93E80147FD02C034E001C034E13C
:10180000042E000C550B57FF03C05195419551090B
:10181000E32E022F242FAE010E947E0ECE01DF9117
:10182000CF911F910F91EF9008958F929F92AF9259
:10183000BF92CF92DF92EF92FF92CF93DF93EC01B2
:10184000688179818A819B81611571058105910586
:1018500021F464E279ED8BE597E02DE133EF41E08F
:1018600050E00E94601149015A019B01AC01A7EAB6
:10187000B1E40E94EA0B6B017C01ACEEB4EFA50170
:1018800094010E948211DC01CB018C0D9D1DAE1DC7
:10189000BF1DB7FF03C00197A109B0488883998392
:1018A000AA83BB839F77DF91CF91FF90EF90DF906A
:1018B000CF90BF90AF909F908F9008950E94150C8D
:1018C000089580E091E00E94150C0895A0E0B0E03A
:1018D0008093000190930101A0930201B093030152
:1018E0000895AEE0B0E0E7E7FCE00C9495118C01C0
:1018F000FA0186E08C831A83098377FF02C060E0D7
:1019000070E8CB0101979E838D83A901BF01CE01B1
:1019100001960E949D0C4D815E8157FD0AC02F816A
:101920003885421753070CF49A01F801E20FF31FB0
:1019300010822E96E4E00C94B111ABE0B0E0E3EA43
:10194000FCE00C9487116C017B018A01FC01178279
:101950001682838181FFCCC1CE0101963C01F60144
:101960009381F70193FD859193FF81917F018823F6
:1019700009F4BAC1853239F493FD859193FF8191C1
:101980007F01853229F4B60190E00E94C610E7CFAE
:10199000912C212C312CFFE1F315D8F08B3279F00A
:1019A00038F4803279F08332A1F4232D20611DC0F8
:1019B0008D3261F0803369F4232D216016C0832DB0
:1019C0008260382EE32DE4603E2E2AC0F32DF860AD
:1019D0001DC037FC2DC020ED280F2A3040F08E327C
:1019E000B9F436FC81C1232D2064322E19C036FE95
:1019F00006C08AE0989E200D1124922E11C0EAE0C4
:101A00002E9E200D1124222EF32DF0623F2E08C0B1
:101A10008C3621F4832D8068382E02C0883641F43C
:101A2000F70193FD859193FF81917F018111B3CFE0
:101A3000982F9F7D9554933028F40C5F1F4F9FE3A0
:101A400099830DC0833631F0833771F0833509F007
:101A500059C021C0F801808189830E5F1F4F8824FF
:101A60008394912C530113C02801F2E04F0E511CB6
:101A7000F801A080B18036FE03C0692D70E002C07D
:101A80006FEF7FEFC5010E94BB104C018201F32D67
:101A9000FF773F2E16C0280122E0420E511CF801AC
:101AA000A080B18036FE03C0692D70E002C06FEFE8
:101AB0007FEFC5010E94B0104C01F32DF0683F2E5E
:101AC000820133FC1BC0822D90E088169906B0F489
:101AD000B60180E290E00E94C6102A94F4CFF5018E
:101AE00037FC859137FE81915F01B60190E00E943D
:101AF000C61021102A9421E0821A910881149104C1
:101B000071F7E8C0843611F0893641F5F80137FEE7
:101B100007C060817181828193810C5F1F4F08C073
:101B200060817181072E000C880B990B0E5F1F4F8F
:101B3000F32DFF763F2E97FF09C090958095709505
:101B400061957F4F8F4F9F4FF0683F2E2AE030E026
:101B5000A3010E940211882E861845C0853731F4F2
:101B6000232D2F7EB22E2AE030E025C0932D997FC1
:101B7000B92E8F36C1F018F4883579F0B5C08037AA
:101B800019F0883721F0B0C0E92FE061BE2EB4FE15
:101B90000DC0FB2DF460BF2E09C034FE0AC0292FF2
:101BA0002660B22E06C028E030E005C020E130E01B
:101BB00002C020E132E0F801B7FE07C06081718108
:101BC000828193810C5F1F4F06C06081718180E02C
:101BD00090E00E5F1F4FA3010E940211882E86180D
:101BE000FB2DFF773F2E36FE0DC0232D2E7FA22E1C
:101BF000891458F434FE0BC032FC09C0832D8E7E4C
:101C0000A82E05C0B82CA32C03C0B82C01C0B92C39
:101C1000A4FE0FC0FE01E80DF11D8081803321F488
:101C20009A2D997EA92E09C0A2FE06C0B394B39442
:101C300004C08A2D867809F0B394A3FC11C0A0FEDD
:101C400006C0B21488F4280C922C9B180EC0B21453
:101C500060F4B60180E290E00E94C610B394F7CF22
:101C6000B21418F42B1802C0982C212CA4FE10C01A
:101C7000B60180E390E00E94C610A2FE17C0A1FC4E
:101C800003C088E790E002C088E590E0B6010CC090
:101C90008A2D867859F0A1FE02C08BE201C080E255
:101CA000A7FC8DE2B60190E00E94C610891438F4BA
:101CB000B60180E390E00E94C6109A94F7CF8A9410
:101CC000F301E80DF11D8081B60190E00E94C6107D
:101CD0008110F5CF222009F442CEB60180E290E0D7
:101CE0000E94C6102A94F6CFF6018681978102C021
:101CF0008FEF9FEF2B96E2E10C94A311A9E0B0E0E7
:101D0000E4E8FEE00C948D116A01122FB02E2BE353
:101D1000201720F0FF24F394F00E02C02CE3F22EE3
:101D20000F2D27E0AE014F5F5F4F0E94D80FBC011F
:101D30004981842F8970813031F0E1FC06C0E0FEDA
:101D400006C090E205C09DE203C09BE201C090E0A6
:101D50005E2D507143FF3CC0911102C083E001C071
:101D600084E0811718F4212F281B01C020E05111B5
:101D70000BC0F601822F30E2882319F03193815095
:101D8000FBCFC20ED11C20E0992329F0D6019C93F1
:101D9000F60131966F01C6010396E2FE0AC03EE4E9
:101DA000D6013C9341E411964C93119712963C93C3
:101DB00006C03EE6F601308341E641833283FC01F2
:101DC000322F40E2332309F442C041933150FACF1D
:101DD00042FF44C0911102C083E001C084E081173A
:101DE00018F4212F281B01C020E051110BC0F6016F
:101DF000822F30E2882319F031938150FBCFC20E3D
:101E0000D11C20E0992329F0D6019C93F60131964C
:101E10006F01C6010396E2FE0BC039E4D6013C9384
:101E20003EE411963C93119736E412963C9307C01A
:101E300039E6F60130833EE6318336E63283FC0133
:101E4000322F40E2332319F041933150FBCFFC0194
:101E5000E20FF11D10828EEF9FEFA6C021E030E06F
:101E6000911102C020E030E0161617061CF4FB01A9
:101E7000319602C0E1E0F0E02E0F3F1FBB2021F0C1
:101E8000EB2DF0E0319602C0E0E0F0E02E0F3F1FB6
:101E9000E12FF0E02E173F071CF4121B212F01C089
:101EA00020E08E2D887159F4F601822F30E28823CC
:101EB00019F031938150FBCFC20ED11C20E0992341
:101EC00029F0D6019C93F60131966F0151110BC098
:101ED000F601822F90E3882319F091938150FBCF74
:101EE000C20ED11C20E00F2D060F9A81342F3071C5
:101EF00044FF03C0913309F40150101624F4093053
:101F000018F008E001C001E0AB0177FF02C040E03B
:101F100050E0FB01E41BF50BA1E0B0E0AC0FBD1FEE
:101F2000EA0FFB1F8EE2A82E4B01801A91080B2DA1
:101F300010E01195019511094F3FBFEF5B0721F4A8
:101F4000D601AC9211966D01641775072CF08416BA
:101F5000950614F4818101C080E341505109319606
:101F6000D60111967D014017510724F0D6018C93BC
:101F70006701E2CF6417750739F4963320F495337F
:101F800019F4311101C081E3F6018083F701822F3A
:101F900090E2882319F091938150FBCFF701E20F73
:101FA000F11D108280E090E02996ECE00C94A911DC
:101FB000283008F027E03327DA01990F311D87FD1B
:101FC000916000966105710539F432602E5F3D9392
:101FD00030E32A95E1F708959F3F30F0803871058E
:101FE000610509F03C5F3C5F3D93913008F08068EB
:101FF000911DDF93CF931F930F93FF92EF92192FB1
:10200000987F9695E92F96959695E90FFF27EE53C1
:10201000FF4F99273327EE24FF24A701E7010590FE
:102020000894079428F4360FE71EF81E491F511D27
:10203000660F771F881F991F0694A1F705900794D4
:1020400028F4E70EF81E491F561FC11D770F881F81
:10205000991F661F0694A1F70590079428F4F80EBF
:10206000491F561FC71FD11D880F991F661F771F55
:102070000694A1F70590079420F4490F561FC71F37
:10208000D81F990F661F771F881F0694A9F78491A0
:102090001095177041F0D695C79557954795F794C9
:1020A000E7941A95C1F7E8E6F0E068941590159169
:1020B00035916591959105907FE27395E118F10A4C
:1020C000430B560BC90BD009C0F7E10CF11E431F9F
:1020D000561FC91FD01D7EF4703311F48A95E6CFC8
:1020E000E894015030F0080F0AF40027021708F4B2
:1020F000202F2395022F7A3328F079E37D932A95B8
:10210000E9F710C07D932A9589F60694979567950F
:10211000379517951794E118F10A430B560BC90B25
:10212000D00998F023957E9173957A3308F070E387
:102130007C932013B8F77E9170617D9330F0839586
:1021400071E37D9370E32A95E1F71124EF90FF90FE
:102150000F911F91CF91DF91992787FD9095089559
:10216000FC010590615070400110D8F78095909562
:102170008E0F9F1F0895FC01615070400190011067
:10218000D8F7809590958E0F9F1F08950F931F93FA
:10219000CF93DF93FB01238121FD03C08FEF9FEFDE
:1021A0002CC022FF16C046815781248135814217F9
:1021B000530744F4A081B1819D012F5F3F4F3183CC
:1021C00020838C93268137812F5F3F4F378326836F
:1021D00014C08B01EC01FB010084F185E02D099511
:1021E000892BE1F6D80116968D919C91179701964F
:1021F00017969C938E931697CE01DF91CF911F91E6
:102200000F910895FA01AA27283051F1203181F168
:10221000E8946F936E7F6E5F7F4F8F4F9F4FAF4FEE
:10222000B1E03ED0B4E03CD0670F781F891F9A1F01
:10223000A11D680F791F8A1F911DA11D6A0F711DB5
:10224000811D911DA11D20D009F468943F912AE0C1
:10225000269F11243019305D3193DEF6CF010895A9
:10226000462F4770405D4193B3E00FD0C9F7F6CFDA
:10227000462F4F70405D4A3318F0495D31FD4052A2
:10228000419302D0A9F7EACFB4E0A6959795879538
:1022900077956795BA95C9F7009761057105089517
:1022A0009B01AC010A2E06945795479537952795C3
:1022B000BA95C9F7620F731F841F951FA01D08955B
:1022C000052E97FB1EF400940E94771157FD07D04E
:1022D0000E94BE1107FC03D04EF40C947711509568
:1022E0004095309521953F4F4F4F5F4F0895909502
:1022F0008095709561957F4F8F4F9F4F0895B7FFE1
:102300000C94EA0B0E94EA0B821B930B08952F9208
:102310003F924F925F926F927F928F929F92AF9275
:10232000BF92CF92DF92EF92FF920F931F93CF93C2
:10233000DF93CDB7DEB7CA1BDB0B0FB6F894DEBF59
:102340000FBECDBF09942A88398848885F846E847F
:102350007D848C849B84AA84B984C884DF80EE80C9
:10236000FD800C811B81AA81B981CE0FD11D0FB6D2
:10237000F894DEBF0FBECDBFED010895A1E21A2E85
:10238000AA1BBB1BFD010DC0AA1FBB1FEE1FFF1F19
:10239000A217B307E407F50720F0A21BB30BE40B69
:1023A000F50B661F771F881F991F1A9469F76095B0
:1023B0007095809590959B01AC01BD01CF0108956A
:0423C000F894FFCFBF
:1023C4000100000001FFFF06000500040000F820E2
:1023D400FDE0FFE007FF071F001FF812F8FFFF00F2
:1023E4000000000000005F00000007000700147FE9
:1023F400147F14242A7F2A12231308646236495551
:1024040022500005030000001C2241000041221C50
:102414000014083E081408083E0808005030000064
:102424000808080808006060000020100804023E44
:102434005149453E00427F40004261514946214195
:10244400454B311814127F1027454545393C4A49FC
:102454004930017109050336494949360649492974
:102464001E003636000000563600000814224100D3
:1024740014141414140041221408020151090632E0
:102484004979413E7E1111117E7F494949363E41C9
:102494004141227F4141221C7F494949417F090929
:1024A40009013E4149497A7F0808087F00417F417C
:1024B400002040413F017F081422417F40404040BA
:1024C4007F020C027F7F0408107F3E4141413E7F22
:1024D400090909063E4151215E7F091929464649E9
:1024E40049493101017F01013F4040403F1F2040E5
:1024F400201F3F4038403F631408146307087008E6
:10250400076151494543007F4141000204081020FE
:102514000041417F00040201020440404040400069
:102524000102040020545454787F48444438384409
:10253400444420384444487F3854545418087E098D
:1025440001020C5252523E7F0804047800447D403C
:10255400002040443D007F1028440000417F40009B
:102564007C041804787C0804047838444444387C97
:1025740014141408081414187C7C0804040848541F
:10258400545420043F4440203C4040407C1C2040A4
:10259400201C3C4030403C44281028440C505050EF
:1025A4003C4464544C4447616D65426F7049740007
:1025B4002D3E50554348414C4520504C41593C2DEB
:1025C4000055415254204C4953544F000D0A0049C0
:1025D4003243204C4953544F004D5055204C4953DD
:1025E400544F002D2D2D2D2D2D2D2D2D2D2D2D2DFB
:1025F4002D2D2D2D2D2D004144433A202D2D2D0020
:10260400424F544F4E205200424F544F4E204C00E4
:102614005354415254007E283E5F3C297E2041475A
:1026240049544100283E5F292044455245434841CE
:1026340000285F3C2920495A5155494552444100DC
:10264400282D5F2D29205245504F534F00414443BC
:042654003A256400BF
:00000001FF
